{
  "contractName": "ElectoralContract",
  "abi": [
    {
      "anonymous": false,
      "inputs": [],
      "name": "candidateRegistrationSuccessful",
      "type": "event"
    },
    {
      "anonymous": false,
      "inputs": [],
      "name": "voterRegistrationSuccessful",
      "type": "event"
    },
    {
      "inputs": [],
      "name": "max_no_of_candidates",
      "outputs": [
        {
          "internalType": "uint256",
          "name": "",
          "type": "uint256"
        }
      ],
      "stateMutability": "view",
      "type": "function",
      "constant": true
    },
    {
      "inputs": [],
      "name": "nameDeContract",
      "outputs": [
        {
          "internalType": "string",
          "name": "",
          "type": "string"
        }
      ],
      "stateMutability": "view",
      "type": "function",
      "constant": true
    },
    {
      "inputs": [],
      "name": "no_of_candidates",
      "outputs": [
        {
          "internalType": "uint256",
          "name": "",
          "type": "uint256"
        }
      ],
      "stateMutability": "view",
      "type": "function",
      "constant": true
    },
    {
      "inputs": [],
      "name": "registerAsCandidate",
      "outputs": [],
      "stateMutability": "nonpayable",
      "type": "function"
    },
    {
      "inputs": [],
      "name": "registerAsVoter",
      "outputs": [],
      "stateMutability": "nonpayable",
      "type": "function"
    },
    {
      "inputs": [
        {
          "internalType": "address",
          "name": "candidateAddress",
          "type": "address"
        }
      ],
      "name": "getCandidatesData",
      "outputs": [
        {
          "components": [
            {
              "internalType": "bool",
              "name": "exists",
              "type": "bool"
            },
            {
              "internalType": "uint256",
              "name": "votes",
              "type": "uint256"
            }
          ],
          "internalType": "struct ElectoralContract.candidate",
          "name": "",
          "type": "tuple"
        }
      ],
      "stateMutability": "view",
      "type": "function",
      "constant": true
    },
    {
      "inputs": [],
      "name": "getCandidates",
      "outputs": [
        {
          "internalType": "address[]",
          "name": "",
          "type": "address[]"
        }
      ],
      "stateMutability": "view",
      "type": "function",
      "constant": true
    },
    {
      "inputs": [
        {
          "internalType": "address",
          "name": "candidateAddress",
          "type": "address"
        }
      ],
      "name": "voteCandidate",
      "outputs": [],
      "stateMutability": "payable",
      "type": "function",
      "payable": true
    }
  ],
  "bytecode": "0x6080604052600060025560046003556040518060400160405280601281526020017f656c6563746f72616c20434f6e7472616374000000000000000000000000000081525060049081620000549190620003f8565b5060035467ffffffffffffffff81111562000074576200007362000189565b5b604051908082528060200260200182016040528015620000a35781602001602082028036833780820191505090505b5060059080519060200190620000bb929190620000d0565b50348015620000c957600080fd5b50620004df565b8280548282559060005260206000209081019282156200014c579160200282015b828111156200014b5782518260006101000a81548173ffffffffffffffffffffffffffffffffffffffff021916908373ffffffffffffffffffffffffffffffffffffffff16021790555091602001919060010190620000f1565b5b5090506200015b91906200015f565b5090565b5b808211156200017a57600081600090555060010162000160565b5090565b600081519050919050565b7f4e487b7100000000000000000000000000000000000000000000000000000000600052604160045260246000fd5b7f4e487b7100000000000000000000000000000000000000000000000000000000600052602260045260246000fd5b600060028204905060018216806200020057607f821691505b602082108103620002165762000215620001b8565b5b50919050565b60008190508160005260206000209050919050565b60006020601f8301049050919050565b600082821b905092915050565b600060088302620002807fffffffffffffffffffffffffffffffffffffffffffffffffffffffffffffffff8262000241565b6200028c868362000241565b95508019841693508086168417925050509392505050565b6000819050919050565b6000819050919050565b6000620002d9620002d3620002cd84620002a4565b620002ae565b620002a4565b9050919050565b6000819050919050565b620002f583620002b8565b6200030d6200030482620002e0565b8484546200024e565b825550505050565b600090565b6200032462000315565b62000331818484620002ea565b505050565b5b8181101562000359576200034d6000826200031a565b60018101905062000337565b5050565b601f821115620003a85762000372816200021c565b6200037d8462000231565b810160208510156200038d578190505b620003a56200039c8562000231565b83018262000336565b50505b505050565b600082821c905092915050565b6000620003cd60001984600802620003ad565b1980831691505092915050565b6000620003e88383620003ba565b9150826002028217905092915050565b62000403826200017e565b67ffffffffffffffff8111156200041f576200041e62000189565b5b6200042b8254620001e7565b620004388282856200035d565b600060209050601f8311600181146200047057600084156200045b578287015190505b620004678582620003da565b865550620004d7565b601f19841662000480866200021c565b60005b82811015620004aa5784890151825560018201915060208501945060208101905062000483565b86831015620004ca5784890151620004c6601f891682620003ba565b8355505b6001600288020188555050505b505050505050565b61117880620004ef6000396000f3fe60806040526004361061007b5760003560e01c8063aa1ea3af1161004e578063aa1ea3af146100f5578063b390223214610120578063c9f0d1f71461015d578063fb0051e5146101885761007b565b806306a49fce1461008057806326bb886d146100ab57806378668658146100c7578063a5ea5627146100de575b600080fd5b34801561008c57600080fd5b506100956101b3565b6040516100a29190610bd4565b60405180910390f35b6100c560048036038101906100c09190610c27565b610241565b005b3480156100d357600080fd5b506100dc61047f565b005b3480156100ea57600080fd5b506100f361067b565b005b34801561010157600080fd5b5061010a61091c565b6040516101179190610c6d565b60405180910390f35b34801561012c57600080fd5b5061014760048036038101906101429190610c27565b610922565b6040516101549190610ce1565b60405180910390f35b34801561016957600080fd5b50610172610a34565b60405161017f9190610c6d565b60405180910390f35b34801561019457600080fd5b5061019d610a3a565b6040516101aa9190610d8c565b60405180910390f35b6060600580548060200260200160405190810160405280929190818152602001828054801561023757602002820191906000526020600020905b8160009054906101000a900473ffffffffffffffffffffffffffffffffffffffff1673ffffffffffffffffffffffffffffffffffffffff16815260200190600101908083116101ed575b5050505050905090565b60011515600160003373ffffffffffffffffffffffffffffffffffffffff1673ffffffffffffffffffffffffffffffffffffffff16815260200190815260200160002060000160009054906101000a900460ff1615151480156102f7575060001515600160003373ffffffffffffffffffffffffffffffffffffffff1673ffffffffffffffffffffffffffffffffffffffff16815260200190815260200160002060000160019054906101000a900460ff161515145b610336576040517f08c379a000000000000000000000000000000000000000000000000000000000815260040161032d90610e20565b60405180910390fd5b600115156000808373ffffffffffffffffffffffffffffffffffffffff1673ffffffffffffffffffffffffffffffffffffffff16815260200190815260200160002060000160009054906101000a900460ff161515146103cb576040517f08c379a00000000000000000000000000000000000000000000000000000000081526004016103c290610e8c565b60405180910390fd5b6000808273ffffffffffffffffffffffffffffffffffffffff1673ffffffffffffffffffffffffffffffffffffffff168152602001908152602001600020600101600081548092919061041d90610edb565b919050555060018060003373ffffffffffffffffffffffffffffffffffffffff1673ffffffffffffffffffffffffffffffffffffffff16815260200190815260200160002060000160016101000a81548160ff02191690831515021790555050565b60001515600160003373ffffffffffffffffffffffffffffffffffffffff1673ffffffffffffffffffffffffffffffffffffffff16815260200190815260200160002060000160009054906101000a900460ff16151514610515576040517f08c379a000000000000000000000000000000000000000000000000000000000815260040161050c90610f95565b60405180910390fd5b600015156000803373ffffffffffffffffffffffffffffffffffffffff1673ffffffffffffffffffffffffffffffffffffffff16815260200190815260200160002060000160009054906101000a900460ff161515146105aa576040517f08c379a00000000000000000000000000000000000000000000000000000000081526004016105a190611027565b60405180910390fd5b6000604051806040016040528060011515815260200160001515815250905080600160003373ffffffffffffffffffffffffffffffffffffffff1673ffffffffffffffffffffffffffffffffffffffff16815260200190815260200160002060008201518160000160006101000a81548160ff02191690831515021790555060208201518160000160016101000a81548160ff0219169083151502179055509050507fabd9def1d97fb29d9285b12268919849d83890c96b5cb51e69d7012c819e9afd60405160405180910390a150565b60035460025411156106c2576040517f08c379a00000000000000000000000000000000000000000000000000000000081526004016106b990611093565b60405180910390fd5b600015156000803373ffffffffffffffffffffffffffffffffffffffff1673ffffffffffffffffffffffffffffffffffffffff16815260200190815260200160002060000160009054906101000a900460ff16151514610757576040517f08c379a000000000000000000000000000000000000000000000000000000000815260040161074e90611027565b60405180910390fd5b60001515600160003373ffffffffffffffffffffffffffffffffffffffff1673ffffffffffffffffffffffffffffffffffffffff16815260200190815260200160002060000160009054906101000a900460ff161515146107ed576040517f08c379a00000000000000000000000000000000000000000000000000000000081526004016107e490610f95565b60405180910390fd5b6000604051806040016040528060011515815260200160008152509050806000803373ffffffffffffffffffffffffffffffffffffffff1673ffffffffffffffffffffffffffffffffffffffff16815260200190815260200160002060008201518160000160006101000a81548160ff021916908315150217905550602082015181600101559050503360056002548154811061088d5761088c6110b3565b5b9060005260206000200160006101000a81548173ffffffffffffffffffffffffffffffffffffffff021916908373ffffffffffffffffffffffffffffffffffffffff160217905550600260008154809291906108e890610edb565b91905055507f1d2f21fd4e96b4cbaa58f37676a477582f861e2264c06071d355dcdbcfac8de860405160405180910390a150565b60025481565b61092a610ac8565b600115156000808473ffffffffffffffffffffffffffffffffffffffff1673ffffffffffffffffffffffffffffffffffffffff16815260200190815260200160002060000160009054906101000a900460ff161515146109bf576040517f08c379a00000000000000000000000000000000000000000000000000000000081526004016109b690610e8c565b60405180910390fd5b6000808373ffffffffffffffffffffffffffffffffffffffff1673ffffffffffffffffffffffffffffffffffffffff1681526020019081526020016000206040518060400160405290816000820160009054906101000a900460ff161515151581526020016001820154815250509050919050565b60035481565b60048054610a4790611111565b80601f0160208091040260200160405190810160405280929190818152602001828054610a7390611111565b8015610ac05780601f10610a9557610100808354040283529160200191610ac0565b820191906000526020600020905b815481529060010190602001808311610aa357829003601f168201915b505050505081565b6040518060400160405280600015158152602001600081525090565b600081519050919050565b600082825260208201905092915050565b6000819050602082019050919050565b600073ffffffffffffffffffffffffffffffffffffffff82169050919050565b6000610b3b82610b10565b9050919050565b610b4b81610b30565b82525050565b6000610b5d8383610b42565b60208301905092915050565b6000602082019050919050565b6000610b8182610ae4565b610b8b8185610aef565b9350610b9683610b00565b8060005b83811015610bc7578151610bae8882610b51565b9750610bb983610b69565b925050600181019050610b9a565b5085935050505092915050565b60006020820190508181036000830152610bee8184610b76565b905092915050565b600080fd5b610c0481610b30565b8114610c0f57600080fd5b50565b600081359050610c2181610bfb565b92915050565b600060208284031215610c3d57610c3c610bf6565b5b6000610c4b84828501610c12565b91505092915050565b6000819050919050565b610c6781610c54565b82525050565b6000602082019050610c826000830184610c5e565b92915050565b60008115159050919050565b610c9d81610c88565b82525050565b610cac81610c54565b82525050565b604082016000820151610cc86000850182610c94565b506020820151610cdb6020850182610ca3565b50505050565b6000604082019050610cf66000830184610cb2565b92915050565b600081519050919050565b600082825260208201905092915050565b60005b83811015610d36578082015181840152602081019050610d1b565b60008484015250505050565b6000601f19601f8301169050919050565b6000610d5e82610cfc565b610d688185610d07565b9350610d78818560208601610d18565b610d8181610d42565b840191505092915050565b60006020820190508181036000830152610da68184610d53565b905092915050565b7f566f74657220646f6573206e6f74206578697374206f7220616c72656164792060008201527f766f746564000000000000000000000000000000000000000000000000000000602082015250565b6000610e0a602583610d07565b9150610e1582610dae565b604082019050919050565b60006020820190508181036000830152610e3981610dfd565b9050919050565b7f43616e64696461746520646f6573206e6f742065786973740000000000000000600082015250565b6000610e76601883610d07565b9150610e8182610e40565b602082019050919050565b60006020820190508181036000830152610ea581610e69565b9050919050565b7f4e487b7100000000000000000000000000000000000000000000000000000000600052601160045260246000fd5b6000610ee682610c54565b91507fffffffffffffffffffffffffffffffffffffffffffffffffffffffffffffffff8203610f1857610f17610eac565b5b600182019050919050565b7f557365722068617320616c72656164792072656769737465726564206173205660008201527f6f7465722e000000000000000000000000000000000000000000000000000000602082015250565b6000610f7f602583610d07565b9150610f8a82610f23565b604082019050919050565b60006020820190508181036000830152610fae81610f72565b9050919050565b7f557365722068617320616c72656164792072656769737465726564206173204360008201527f616e6469646174652e0000000000000000000000000000000000000000000000602082015250565b6000611011602983610d07565b915061101c82610fb5565b604082019050919050565b6000602082019050818103600083015261104081611004565b9050919050565b7f4e6f206f66206d61782063616e646964617465732065786365656465642e0000600082015250565b600061107d601e83610d07565b915061108882611047565b602082019050919050565b600060208201905081810360008301526110ac81611070565b9050919050565b7f4e487b7100000000000000000000000000000000000000000000000000000000600052603260045260246000fd5b7f4e487b7100000000000000000000000000000000000000000000000000000000600052602260045260246000fd5b6000600282049050600182168061112957607f821691505b60208210810361113c5761113b6110e2565b5b5091905056fea26469706673582212206ab5424e80d20d72b246ae4e3d8db5833b6701c8c7c3134bcf0e9b7f9617272e64736f6c63430008120033",
  "immutableReferences": {},
  "source": "// SPDX-License-Identifier: GPL-3.0\r\n\r\npragma solidity >=0.7.0 <0.9.0;\r\n\r\ncontract ElectoralContract {\r\n    struct candidate {\r\n        bool exists;\r\n        uint256 votes;\r\n    }\r\n\r\n    struct voter {\r\n        bool exists;\r\n        bool voted;\r\n    }\r\n    // implement the results functionality\r\n    mapping(address => candidate) candidates;\r\n    mapping(address => voter) voters;\r\n    uint256 public no_of_candidates = 0;\r\n    uint256 public max_no_of_candidates = 4;\r\n\r\n    string public nameDeContract = \"electoral COntract\";\r\n    address[] private candidatesAddress = new address[](max_no_of_candidates);\r\n\r\n    event candidateRegistrationSuccessful();\r\n    event voterRegistrationSuccessful();\r\n\r\n    function registerAsCandidate() public {\r\n        require(no_of_candidates <= max_no_of_candidates, \"No of max candidates exceeded.\");\r\n        require(\r\n            candidates[msg.sender].exists == false,\r\n            \"User has already registered as Candidate.\"\r\n        );\r\n        require(\r\n            voters[msg.sender].exists == false,\r\n            \"User has already registered as Voter.\"\r\n        );\r\n        candidate memory newCandidate = candidate(true, 0);\r\n        candidates[msg.sender] = newCandidate;\r\n        candidatesAddress[no_of_candidates] = msg.sender;\r\n        no_of_candidates++;\r\n        emit candidateRegistrationSuccessful();\r\n    }\r\n\r\n    function registerAsVoter() public {\r\n        require(\r\n            voters[msg.sender].exists == false,\r\n            \"User has already registered as Voter.\"\r\n        );\r\n        require(\r\n            candidates[msg.sender].exists == false,\r\n            \"User has already registered as Candidate.\"\r\n        );\r\n        voter memory newVoter = voter(true, false);\r\n        voters[msg.sender] = newVoter;\r\n        emit voterRegistrationSuccessful();\r\n    }\r\n\r\n    function getCandidatesData(address candidateAddress)\r\n        public\r\n        view\r\n        returns (candidate memory)\r\n    {\r\n        require(\r\n            candidates[candidateAddress].exists == true,\r\n            \"Candidate does not exist\"\r\n        );\r\n        return candidates[candidateAddress];\r\n    }\r\n\r\n    function getCandidates() public view returns (address[] memory) {\r\n        return candidatesAddress;\r\n    }\r\n\r\n    function voteCandidate(address candidateAddress) public payable {\r\n        require(\r\n            voters[msg.sender].exists == true &&\r\n                voters[msg.sender].voted == false,\r\n            \"Voter does not exist or already voted\"\r\n        );\r\n        require(\r\n            candidates[candidateAddress].exists == true,\r\n            \"Candidate does not exist\"\r\n        );\r\n        candidates[candidateAddress].votes++;\r\n        voters[msg.sender].voted = true;\r\n    }\r\n}\r\n",
  "sourcePath": "D:\\Tashfeen_Tipu\\BEDS\\MSc Project\\MSC-Project\\electoralfrontend\\contracts\\ElectoralContract.sol",
  "compiler": {
    "name": "solc",
    "version": "0.8.18+commit.87f61d96.Emscripten.clang"
  },
  "schemaVersion": "3.4.10",
  "updatedAt": "2023-02-17T00:12:35.583Z",
  "networkType": "ethereum",
  "devdoc": {
    "kind": "dev",
    "methods": {},
    "version": 1
  },
  "userdoc": {
    "kind": "user",
    "methods": {},
    "version": 1
  }
}