{
  "contractName": "ElectoralContract",
  "abi": [
    {
      "inputs": [],
      "name": "no_of_candidates",
      "outputs": [
        {
          "internalType": "uint256",
          "name": "",
          "type": "uint256"
        }
      ],
      "stateMutability": "view",
      "type": "function"
    },
    {
      "inputs": [],
      "name": "registerAsCandidate",
      "outputs": [],
      "stateMutability": "payable",
      "type": "function"
    },
    {
      "inputs": [],
      "name": "registerAsVoter",
      "outputs": [],
      "stateMutability": "payable",
      "type": "function"
    },
    {
      "inputs": [
        {
          "internalType": "address",
          "name": "candidateAddress",
          "type": "address"
        }
      ],
      "name": "getCandidatesVotes",
      "outputs": [
        {
          "internalType": "uint256",
          "name": "",
          "type": "uint256"
        }
      ],
      "stateMutability": "view",
      "type": "function"
    },
    {
      "inputs": [
        {
          "internalType": "address",
          "name": "candidateAddress",
          "type": "address"
        }
      ],
      "name": "voteCandidate",
      "outputs": [],
      "stateMutability": "payable",
      "type": "function"
    }
  ],
  "bytecode": "0x6080604052600060025534801561001557600080fd5b50610c00806100256000396000f3fe60806040526004361061004a5760003560e01c806326bb886d1461004f5780633a2756ae1461006b57806378668658146100a8578063a5ea5627146100b2578063aa1ea3af146100bc575b600080fd5b61006960048036038101906100649190610853565b6100e7565b005b34801561007757600080fd5b50610092600480360381019061008d9190610853565b610325565b60405161009f9190610899565b60405180910390f35b6100b0610405565b005b6100ba6105d5565b005b3480156100c857600080fd5b506100d16107ea565b6040516100de9190610899565b60405180910390f35b60011515600160003373ffffffffffffffffffffffffffffffffffffffff1673ffffffffffffffffffffffffffffffffffffffff16815260200190815260200160002060000160009054906101000a900460ff16151514801561019d575060001515600160003373ffffffffffffffffffffffffffffffffffffffff1673ffffffffffffffffffffffffffffffffffffffff16815260200190815260200160002060000160019054906101000a900460ff161515145b6101dc576040517f08c379a00000000000000000000000000000000000000000000000000000000081526004016101d390610937565b60405180910390fd5b600115156000808373ffffffffffffffffffffffffffffffffffffffff1673ffffffffffffffffffffffffffffffffffffffff16815260200190815260200160002060000160009054906101000a900460ff16151514610271576040517f08c379a0000000000000000000000000000000000000000000000000000000008152600401610268906109a3565b60405180910390fd5b6000808273ffffffffffffffffffffffffffffffffffffffff1673ffffffffffffffffffffffffffffffffffffffff16815260200190815260200160002060010160008154809291906102c3906109f2565b919050555060018060003373ffffffffffffffffffffffffffffffffffffffff1673ffffffffffffffffffffffffffffffffffffffff16815260200190815260200160002060000160016101000a81548160ff02191690831515021790555050565b6000600115156000808473ffffffffffffffffffffffffffffffffffffffff1673ffffffffffffffffffffffffffffffffffffffff16815260200190815260200160002060000160009054906101000a900460ff161515146103bc576040517f08c379a00000000000000000000000000000000000000000000000000000000081526004016103b3906109a3565b60405180910390fd5b6000808373ffffffffffffffffffffffffffffffffffffffff1673ffffffffffffffffffffffffffffffffffffffff168152602001908152602001600020600101549050919050565b60001515600160003373ffffffffffffffffffffffffffffffffffffffff1673ffffffffffffffffffffffffffffffffffffffff16815260200190815260200160002060000160009054906101000a900460ff1615151461049b576040517f08c379a000000000000000000000000000000000000000000000000000000000815260040161049290610aac565b60405180910390fd5b600015156000803373ffffffffffffffffffffffffffffffffffffffff1673ffffffffffffffffffffffffffffffffffffffff16815260200190815260200160002060000160009054906101000a900460ff16151514610530576040517f08c379a000000000000000000000000000000000000000000000000000000000815260040161052790610b3e565b60405180910390fd5b6000604051806040016040528060011515815260200160001515815250905080600160003373ffffffffffffffffffffffffffffffffffffffff1673ffffffffffffffffffffffffffffffffffffffff16815260200190815260200160002060008201518160000160006101000a81548160ff02191690831515021790555060208201518160000160016101000a81548160ff02191690831515021790555090505050565b6004600254111561061b576040517f08c379a000000000000000000000000000000000000000000000000000000000815260040161061290610baa565b60405180910390fd5b600015156000803373ffffffffffffffffffffffffffffffffffffffff1673ffffffffffffffffffffffffffffffffffffffff16815260200190815260200160002060000160009054906101000a900460ff161515146106b0576040517f08c379a00000000000000000000000000000000000000000000000000000000081526004016106a790610b3e565b60405180910390fd5b60001515600160003373ffffffffffffffffffffffffffffffffffffffff1673ffffffffffffffffffffffffffffffffffffffff16815260200190815260200160002060000160009054906101000a900460ff16151514610746576040517f08c379a000000000000000000000000000000000000000000000000000000000815260040161073d90610aac565b60405180910390fd5b6000604051806040016040528060011515815260200160008152509050806000803373ffffffffffffffffffffffffffffffffffffffff1673ffffffffffffffffffffffffffffffffffffffff16815260200190815260200160002060008201518160000160006101000a81548160ff02191690831515021790555060208201518160010155905050600260008154809291906107e2906109f2565b919050555050565b60025481565b600080fd5b600073ffffffffffffffffffffffffffffffffffffffff82169050919050565b6000610820826107f5565b9050919050565b61083081610815565b811461083b57600080fd5b50565b60008135905061084d81610827565b92915050565b600060208284031215610869576108686107f0565b5b60006108778482850161083e565b91505092915050565b6000819050919050565b61089381610880565b82525050565b60006020820190506108ae600083018461088a565b92915050565b600082825260208201905092915050565b7f566f74657220646f6573206e6f74206578697374206f7220616c72656164792060008201527f766f746564000000000000000000000000000000000000000000000000000000602082015250565b60006109216025836108b4565b915061092c826108c5565b604082019050919050565b6000602082019050818103600083015261095081610914565b9050919050565b7f43616e64696461746520646f6573206e6f742065786973740000000000000000600082015250565b600061098d6018836108b4565b915061099882610957565b602082019050919050565b600060208201905081810360008301526109bc81610980565b9050919050565b7f4e487b7100000000000000000000000000000000000000000000000000000000600052601160045260246000fd5b60006109fd82610880565b91507fffffffffffffffffffffffffffffffffffffffffffffffffffffffffffffffff8203610a2f57610a2e6109c3565b5b600182019050919050565b7f557365722068617320616c72656164792072656769737465726564206173205660008201527f6f7465722e000000000000000000000000000000000000000000000000000000602082015250565b6000610a966025836108b4565b9150610aa182610a3a565b604082019050919050565b60006020820190508181036000830152610ac581610a89565b9050919050565b7f557365722068617320616c72656164792072656769737465726564206173204360008201527f616e6469646174652e0000000000000000000000000000000000000000000000602082015250565b6000610b286029836108b4565b9150610b3382610acc565b604082019050919050565b60006020820190508181036000830152610b5781610b1b565b9050919050565b7f4e6f206f66206d61782063616e646964617465732065786365656465642e0000600082015250565b6000610b94601e836108b4565b9150610b9f82610b5e565b602082019050919050565b60006020820190508181036000830152610bc381610b87565b905091905056fea2646970667358221220dd3a4c1647daf28bf5e73b186748a596963c591a03b0706c63eb0b8eace27ea564736f6c63430008110033",
  "immutableReferences": {},
  "source": "// SPDX-License-Identifier: GPL-3.0\r\n\r\npragma solidity >=0.7.0 <0.9.0;\r\n\r\ncontract ElectoralContract {\r\n    struct candidate {\r\n        bool exists;\r\n        uint256 votes;\r\n    }\r\n\r\n    struct voter {\r\n        bool exists;\r\n        bool voted;\r\n    }\r\n\r\n    mapping(address => candidate) candidates;\r\n    mapping(address => voter) voters;\r\n    uint public no_of_candidates = 0;\r\n\r\n    function registerAsCandidate() public payable {\r\n        require(\r\n            no_of_candidates <= 4,\r\n            \"No of max candidates exceeded.\"\r\n        );\r\n        require(\r\n            candidates[msg.sender].exists == false,\r\n            \"User has already registered as Candidate.\"\r\n        );\r\n        require(\r\n            voters[msg.sender].exists == false,\r\n            \"User has already registered as Voter.\"\r\n        );\r\n        candidate memory newCandidate = candidate(true, 0);\r\n        candidates[msg.sender] = newCandidate;\r\n        no_of_candidates++;\r\n    }\r\n\r\n    function registerAsVoter() public payable {\r\n        require(\r\n            voters[msg.sender].exists == false,\r\n            \"User has already registered as Voter.\"\r\n        );\r\n        require(\r\n            candidates[msg.sender].exists == false,\r\n            \"User has already registered as Candidate.\"\r\n        );\r\n        voter memory newVoter = voter(true, false);\r\n        voters[msg.sender] = newVoter;\r\n    }\r\n\r\n    function getCandidatesVotes(address candidateAddress)\r\n        public\r\n        view\r\n        returns (uint256)\r\n    {\r\n        require(\r\n            candidates[candidateAddress].exists == true,\r\n            \"Candidate does not exist\"\r\n        );\r\n        return candidates[candidateAddress].votes;\r\n    }\r\n\r\n    function voteCandidate(address candidateAddress) public payable {\r\n        require(\r\n            voters[msg.sender].exists == true &&\r\n                voters[msg.sender].voted == false,\r\n            \"Voter does not exist or already voted\"\r\n        );\r\n        require(\r\n            candidates[candidateAddress].exists == true,\r\n            \"Candidate does not exist\"\r\n        );\r\n        candidates[candidateAddress].votes++;\r\n        voters[msg.sender].voted = true;\r\n    }\r\n}",
  "sourcePath": "D:\\Tashfeen_Tipu\\BEDS\\MSc Project\\MSC-Project\\electoralfrontend\\contracts\\ElectoralContract.sol",
  "compiler": {
    "name": "solc",
    "version": "0.8.17+commit.8df45f5f.Emscripten.clang"
  },
  "schemaVersion": "3.4.10",
  "updatedAt": "2023-01-24T19:13:39.363Z",
  "devdoc": {
    "kind": "dev",
    "methods": {},
    "version": 1
  },
  "userdoc": {
    "kind": "user",
    "methods": {},
    "version": 1
  }
}