{
  "contractName": "ElectoralContract",
  "abi": [
    {
      "inputs": [],
      "stateMutability": "nonpayable",
      "type": "constructor"
    },
    {
      "inputs": [],
      "name": "name",
      "outputs": [
        {
          "internalType": "string",
          "name": "",
          "type": "string"
        }
      ],
      "stateMutability": "view",
      "type": "function",
      "constant": true
    },
    {
      "inputs": [],
      "name": "symbol",
      "outputs": [
        {
          "internalType": "string",
          "name": "",
          "type": "string"
        }
      ],
      "stateMutability": "view",
      "type": "function",
      "constant": true
    },
    {
      "inputs": [
        {
          "internalType": "address",
          "name": "",
          "type": "address"
        }
      ],
      "name": "votes",
      "outputs": [
        {
          "internalType": "uint256",
          "name": "",
          "type": "uint256"
        }
      ],
      "stateMutability": "view",
      "type": "function",
      "constant": true
    }
  ],
  "bytecode": "0x60806040523480156200001157600080fd5b506040518060400160405280601281526020017f456c6563746f72616c20436f6e747261637400000000000000000000000000008152506000908162000058919062000320565b506040518060400160405280601981526020017f456c6563746f72616c20436f6e74726163742053796d626f6c00000000000000815250600190816200009f919062000320565b5062000407565b600081519050919050565b7f4e487b7100000000000000000000000000000000000000000000000000000000600052604160045260246000fd5b7f4e487b7100000000000000000000000000000000000000000000000000000000600052602260045260246000fd5b600060028204905060018216806200012857607f821691505b6020821081036200013e576200013d620000e0565b5b50919050565b60008190508160005260206000209050919050565b60006020601f8301049050919050565b600082821b905092915050565b600060088302620001a87fffffffffffffffffffffffffffffffffffffffffffffffffffffffffffffffff8262000169565b620001b4868362000169565b95508019841693508086168417925050509392505050565b6000819050919050565b6000819050919050565b600062000201620001fb620001f584620001cc565b620001d6565b620001cc565b9050919050565b6000819050919050565b6200021d83620001e0565b620002356200022c8262000208565b84845462000176565b825550505050565b600090565b6200024c6200023d565b6200025981848462000212565b505050565b5b8181101562000281576200027560008262000242565b6001810190506200025f565b5050565b601f821115620002d0576200029a8162000144565b620002a58462000159565b81016020851015620002b5578190505b620002cd620002c48562000159565b8301826200025e565b50505b505050565b600082821c905092915050565b6000620002f560001984600802620002d5565b1980831691505092915050565b6000620003108383620002e2565b9150826002028217905092915050565b6200032b82620000a6565b67ffffffffffffffff811115620003475762000346620000b1565b5b6200035382546200010f565b6200036082828562000285565b600060209050601f83116001811462000398576000841562000383578287015190505b6200038f858262000302565b865550620003ff565b601f198416620003a88662000144565b60005b82811015620003d257848901518255600182019150602085019450602081019050620003ab565b86831015620003f25784890151620003ee601f891682620002e2565b8355505b6001600288020188555050505b505050505050565b6103f280620004176000396000f3fe608060405234801561001057600080fd5b50600436106100415760003560e01c806306fdde031461004657806395d89b4114610064578063d8bff5a514610082575b600080fd5b61004e6100b2565b60405161005b9190610276565b60405180910390f35b61006c610140565b6040516100799190610276565b60405180910390f35b61009c600480360381019061009791906102fb565b6101ce565b6040516100a99190610341565b60405180910390f35b600080546100bf9061038b565b80601f01602080910402602001604051908101604052809291908181526020018280546100eb9061038b565b80156101385780601f1061010d57610100808354040283529160200191610138565b820191906000526020600020905b81548152906001019060200180831161011b57829003601f168201915b505050505081565b6001805461014d9061038b565b80601f01602080910402602001604051908101604052809291908181526020018280546101799061038b565b80156101c65780601f1061019b576101008083540402835291602001916101c6565b820191906000526020600020905b8154815290600101906020018083116101a957829003601f168201915b505050505081565b60026020528060005260406000206000915090505481565b600081519050919050565b600082825260208201905092915050565b60005b83811015610220578082015181840152602081019050610205565b60008484015250505050565b6000601f19601f8301169050919050565b6000610248826101e6565b61025281856101f1565b9350610262818560208601610202565b61026b8161022c565b840191505092915050565b60006020820190508181036000830152610290818461023d565b905092915050565b600080fd5b600073ffffffffffffffffffffffffffffffffffffffff82169050919050565b60006102c88261029d565b9050919050565b6102d8816102bd565b81146102e357600080fd5b50565b6000813590506102f5816102cf565b92915050565b60006020828403121561031157610310610298565b5b600061031f848285016102e6565b91505092915050565b6000819050919050565b61033b81610328565b82525050565b60006020820190506103566000830184610332565b92915050565b7f4e487b7100000000000000000000000000000000000000000000000000000000600052602260045260246000fd5b600060028204905060018216806103a357607f821691505b6020821081036103b6576103b561035c565b5b5091905056fea264697066735822122035afbedb3151ae88045ecfce36988ee97c60e41e8423c807e61a28503f08f92c64736f6c63430008110033",
  "immutableReferences": {},
  "source": "// SPDX-License-Identifier: MIT\r\npragma solidity >=0.4.22 <0.9.0;\r\n\r\ncontract ElectoralContract {\r\n    string public name;\r\n    string public symbol;\r\n    mapping(address => uint256) public votes;\r\n\r\n    constructor() {\r\n        name = \"Electoral Contract\";\r\n        symbol = \"Electoral Contract Symbol\";\r\n    }\r\n\r\n    \r\n}\r\n",
  "sourcePath": "D:\\Tashfeen_Tipu\\BEDS\\MSc Project\\MSC-Project\\electoralfrontend\\contracts\\ElectoralContract.sol",
  "compiler": {
    "name": "solc",
    "version": "0.8.17+commit.8df45f5f.Emscripten.clang"
  },
  "schemaVersion": "3.4.10",
  "updatedAt": "2023-01-14T23:56:02.395Z",
  "networkType": "ethereum",
  "devdoc": {
    "kind": "dev",
    "methods": {},
    "version": 1
  },
  "userdoc": {
    "kind": "user",
    "methods": {},
    "version": 1
  }
}