{
  "contractName": "ElectoralContract",
  "abi": [
    {
      "inputs": [],
      "name": "registerAsCandidate",
      "outputs": [],
      "stateMutability": "payable",
      "type": "function"
    },
    {
      "inputs": [],
      "name": "registerAsVoter",
      "outputs": [],
      "stateMutability": "payable",
      "type": "function"
    },
    {
      "inputs": [
        {
          "internalType": "address",
          "name": "candidateAddress",
          "type": "address"
        }
      ],
      "name": "getCandidatesVotes",
      "outputs": [
        {
          "internalType": "uint256",
          "name": "",
          "type": "uint256"
        }
      ],
      "stateMutability": "view",
      "type": "function"
    },
    {
      "inputs": [
        {
          "internalType": "address",
          "name": "candidateAddress",
          "type": "address"
        }
      ],
      "name": "voteCandidate",
      "outputs": [],
      "stateMutability": "payable",
      "type": "function"
    }
  ],
  "bytecode": "0x608060405234801561001057600080fd5b50610ad4806100206000396000f3fe60806040526004361061003f5760003560e01c806326bb886d146100445780633a2756ae14610060578063786686581461009d578063a5ea5627146100a7575b600080fd5b61005e600480360381019061005991906107b9565b6100b1565b005b34801561006c57600080fd5b50610087600480360381019061008291906107b9565b6102ef565b60405161009491906107ff565b60405180910390f35b6100a56103cf565b005b6100af61059f565b005b60011515600160003373ffffffffffffffffffffffffffffffffffffffff1673ffffffffffffffffffffffffffffffffffffffff16815260200190815260200160002060000160009054906101000a900460ff161515148015610167575060001515600160003373ffffffffffffffffffffffffffffffffffffffff1673ffffffffffffffffffffffffffffffffffffffff16815260200190815260200160002060000160019054906101000a900460ff161515145b6101a6576040517f08c379a000000000000000000000000000000000000000000000000000000000815260040161019d9061089d565b60405180910390fd5b600115156000808373ffffffffffffffffffffffffffffffffffffffff1673ffffffffffffffffffffffffffffffffffffffff16815260200190815260200160002060000160009054906101000a900460ff1615151461023b576040517f08c379a000000000000000000000000000000000000000000000000000000000815260040161023290610909565b60405180910390fd5b6000808273ffffffffffffffffffffffffffffffffffffffff1673ffffffffffffffffffffffffffffffffffffffff168152602001908152602001600020600101600081548092919061028d90610958565b919050555060018060003373ffffffffffffffffffffffffffffffffffffffff1673ffffffffffffffffffffffffffffffffffffffff16815260200190815260200160002060000160016101000a81548160ff02191690831515021790555050565b6000600115156000808473ffffffffffffffffffffffffffffffffffffffff1673ffffffffffffffffffffffffffffffffffffffff16815260200190815260200160002060000160009054906101000a900460ff16151514610386576040517f08c379a000000000000000000000000000000000000000000000000000000000815260040161037d90610909565b60405180910390fd5b6000808373ffffffffffffffffffffffffffffffffffffffff1673ffffffffffffffffffffffffffffffffffffffff168152602001908152602001600020600101549050919050565b60001515600160003373ffffffffffffffffffffffffffffffffffffffff1673ffffffffffffffffffffffffffffffffffffffff16815260200190815260200160002060000160009054906101000a900460ff16151514610465576040517f08c379a000000000000000000000000000000000000000000000000000000000815260040161045c906109ec565b60405180910390fd5b600015156000803373ffffffffffffffffffffffffffffffffffffffff1673ffffffffffffffffffffffffffffffffffffffff16815260200190815260200160002060000160009054906101000a900460ff161515146104fa576040517f08c379a00000000000000000000000000000000000000000000000000000000081526004016104f190610a7e565b60405180910390fd5b6000604051806040016040528060011515815260200160001515815250905080600160003373ffffffffffffffffffffffffffffffffffffffff1673ffffffffffffffffffffffffffffffffffffffff16815260200190815260200160002060008201518160000160006101000a81548160ff02191690831515021790555060208201518160000160016101000a81548160ff02191690831515021790555090505050565b600015156000803373ffffffffffffffffffffffffffffffffffffffff1673ffffffffffffffffffffffffffffffffffffffff16815260200190815260200160002060000160009054906101000a900460ff16151514610634576040517f08c379a000000000000000000000000000000000000000000000000000000000815260040161062b90610a7e565b60405180910390fd5b60001515600160003373ffffffffffffffffffffffffffffffffffffffff1673ffffffffffffffffffffffffffffffffffffffff16815260200190815260200160002060000160009054906101000a900460ff161515146106ca576040517f08c379a00000000000000000000000000000000000000000000000000000000081526004016106c1906109ec565b60405180910390fd5b6000604051806040016040528060011515815260200160008152509050806000803373ffffffffffffffffffffffffffffffffffffffff1673ffffffffffffffffffffffffffffffffffffffff16815260200190815260200160002060008201518160000160006101000a81548160ff0219169083151502179055506020820151816001015590505050565b600080fd5b600073ffffffffffffffffffffffffffffffffffffffff82169050919050565b60006107868261075b565b9050919050565b6107968161077b565b81146107a157600080fd5b50565b6000813590506107b38161078d565b92915050565b6000602082840312156107cf576107ce610756565b5b60006107dd848285016107a4565b91505092915050565b6000819050919050565b6107f9816107e6565b82525050565b600060208201905061081460008301846107f0565b92915050565b600082825260208201905092915050565b7f566f74657220646f6573206e6f74206578697374206f7220616c72656164792060008201527f766f746564000000000000000000000000000000000000000000000000000000602082015250565b600061088760258361081a565b91506108928261082b565b604082019050919050565b600060208201905081810360008301526108b68161087a565b9050919050565b7f43616e64696461746520646f6573206e6f742065786973740000000000000000600082015250565b60006108f360188361081a565b91506108fe826108bd565b602082019050919050565b60006020820190508181036000830152610922816108e6565b9050919050565b7f4e487b7100000000000000000000000000000000000000000000000000000000600052601160045260246000fd5b6000610963826107e6565b91507fffffffffffffffffffffffffffffffffffffffffffffffffffffffffffffffff820361099557610994610929565b5b600182019050919050565b7f5573657220616c7265616479207265676973746572656420617320566f746572600082015250565b60006109d660208361081a565b91506109e1826109a0565b602082019050919050565b60006020820190508181036000830152610a05816109c9565b9050919050565b7f5573657220616c726561647920726567697374657265642061732043616e646960008201527f6461746500000000000000000000000000000000000000000000000000000000602082015250565b6000610a6860248361081a565b9150610a7382610a0c565b604082019050919050565b60006020820190508181036000830152610a9781610a5b565b905091905056fea264697066735822122001b1a35b156ba048ef0be9adc8a77d0b02bffc0ffe1403a50960be5aa923a71764736f6c63430008110033",
  "immutableReferences": {},
  "source": "// SPDX-License-Identifier: GPL-3.0\r\n\r\npragma solidity >=0.7.0 <0.9.0;\r\n\r\ncontract ElectoralContract {\r\n    struct candidate {\r\n        bool exists;\r\n        uint256 votes;\r\n    }\r\n\r\n    struct voter {\r\n        bool exists;\r\n        bool voted;\r\n    }\r\n\r\n    mapping(address => candidate) candidates;\r\n    mapping(address => voter) voters;\r\n\r\n    function registerAsCandidate() public payable {\r\n        require(\r\n            candidates[msg.sender].exists == false,\r\n            \"User already registered as Candidate\"\r\n        );\r\n        require(\r\n            voters[msg.sender].exists == false,\r\n            \"User already registered as Voter\"\r\n        );\r\n        candidate memory newCandidate = candidate(true, 0);\r\n        candidates[msg.sender] = newCandidate;\r\n    }\r\n\r\n    function registerAsVoter() public payable {\r\n        require(\r\n            voters[msg.sender].exists == false,\r\n            \"User already registered as Voter\"\r\n        );\r\n        require(\r\n            candidates[msg.sender].exists == false,\r\n            \"User already registered as Candidate\"\r\n        );\r\n        voter memory newVoter = voter(true, false);\r\n        voters[msg.sender] = newVoter;\r\n    }\r\n\r\n    function getCandidatesVotes(address candidateAddress)\r\n        public\r\n        view\r\n        returns (uint256)\r\n    {\r\n        require(\r\n            candidates[candidateAddress].exists == true,\r\n            \"Candidate does not exist\"\r\n        );\r\n        return candidates[candidateAddress].votes;\r\n    }\r\n\r\n    function voteCandidate(address candidateAddress) public payable {\r\n        require(\r\n            voters[msg.sender].exists == true &&\r\n                voters[msg.sender].voted == false,\r\n            \"Voter does not exist or already voted\"\r\n        );\r\n        require(\r\n            candidates[candidateAddress].exists == true,\r\n            \"Candidate does not exist\"\r\n        );\r\n        candidates[candidateAddress].votes++;\r\n        voters[msg.sender].voted = true;\r\n    }\r\n}",
  "sourcePath": "D:\\Tashfeen_Tipu\\BEDS\\MSc Project\\MSC-Project\\electoralfrontend\\contracts\\ElectoralContract.sol",
  "compiler": {
    "name": "solc",
    "version": "0.8.17+commit.8df45f5f.Emscripten.clang"
  },
  "schemaVersion": "3.4.10",
  "updatedAt": "2023-01-23T23:52:02.429Z",
  "devdoc": {
    "kind": "dev",
    "methods": {},
    "version": 1
  },
  "userdoc": {
    "kind": "user",
    "methods": {},
    "version": 1
  }
}