{
  "contractName": "ElectoralContract",
  "abi": [
    {
      "anonymous": false,
      "inputs": [],
      "name": "candidateRegistrationSuccessful",
      "type": "event"
    },
    {
      "anonymous": false,
      "inputs": [],
      "name": "voterRegistrationSuccessful",
      "type": "event"
    },
    {
      "inputs": [],
      "name": "max_no_of_candidates",
      "outputs": [
        {
          "internalType": "uint256",
          "name": "",
          "type": "uint256"
        }
      ],
      "stateMutability": "view",
      "type": "function",
      "constant": true
    },
    {
      "inputs": [],
      "name": "no_of_candidates",
      "outputs": [
        {
          "internalType": "uint256",
          "name": "",
          "type": "uint256"
        }
      ],
      "stateMutability": "view",
      "type": "function",
      "constant": true
    },
    {
      "inputs": [],
      "name": "registerAsCandidate",
      "outputs": [],
      "stateMutability": "nonpayable",
      "type": "function"
    },
    {
      "inputs": [],
      "name": "registerAsVoter",
      "outputs": [],
      "stateMutability": "nonpayable",
      "type": "function"
    },
    {
      "inputs": [
        {
          "internalType": "address",
          "name": "candidateAddress",
          "type": "address"
        }
      ],
      "name": "getCandidatesData",
      "outputs": [
        {
          "components": [
            {
              "internalType": "bool",
              "name": "exists",
              "type": "bool"
            },
            {
              "internalType": "uint256",
              "name": "votes",
              "type": "uint256"
            }
          ],
          "internalType": "struct ElectoralContract.candidate",
          "name": "",
          "type": "tuple"
        }
      ],
      "stateMutability": "view",
      "type": "function",
      "constant": true
    },
    {
      "inputs": [],
      "name": "getCandidates",
      "outputs": [
        {
          "internalType": "address[]",
          "name": "",
          "type": "address[]"
        }
      ],
      "stateMutability": "view",
      "type": "function",
      "constant": true
    },
    {
      "inputs": [
        {
          "internalType": "address",
          "name": "candidateAddress",
          "type": "address"
        }
      ],
      "name": "voteCandidate",
      "outputs": [],
      "stateMutability": "nonpayable",
      "type": "function"
    }
  ],
  "bytecode": "0x60806040526000600255600460035560035467ffffffffffffffff81111561002a57610029610128565b5b6040519080825280602002602001820160405280156100585781602001602082028036833780820191505090505b506004908051906020019061006e929190610081565b5034801561007b57600080fd5b50610157565b8280548282559060005260206000209081019282156100fa579160200282015b828111156100f95782518260006101000a81548173ffffffffffffffffffffffffffffffffffffffff021916908373ffffffffffffffffffffffffffffffffffffffff160217905550916020019190600101906100a1565b5b509050610107919061010b565b5090565b5b8082111561012457600081600090555060010161010c565b5090565b7f4e487b7100000000000000000000000000000000000000000000000000000000600052604160045260246000fd5b610f7280620001676000396000f3fe608060405234801561001057600080fd5b506004361061007d5760003560e01c8063a5ea56271161005b578063a5ea5627146100c6578063aa1ea3af146100d0578063b3902232146100ee578063c9f0d1f71461011e5761007d565b806306a49fce1461008257806326bb886d146100a057806378668658146100bc575b600080fd5b61008a61013c565b6040516100979190610acf565b60405180910390f35b6100ba60048036038101906100b59190610b22565b6101ca565b005b6100c4610408565b005b6100ce610604565b005b6100d86108a5565b6040516100e59190610b68565b60405180910390f35b61010860048036038101906101039190610b22565b6108ab565b6040516101159190610bdc565b60405180910390f35b6101266109bd565b6040516101339190610b68565b60405180910390f35b606060048054806020026020016040519081016040528092919081815260200182805480156101c057602002820191906000526020600020905b8160009054906101000a900473ffffffffffffffffffffffffffffffffffffffff1673ffffffffffffffffffffffffffffffffffffffff1681526020019060010190808311610176575b5050505050905090565b60011515600160003373ffffffffffffffffffffffffffffffffffffffff1673ffffffffffffffffffffffffffffffffffffffff16815260200190815260200160002060000160009054906101000a900460ff161515148015610280575060001515600160003373ffffffffffffffffffffffffffffffffffffffff1673ffffffffffffffffffffffffffffffffffffffff16815260200190815260200160002060000160019054906101000a900460ff161515145b6102bf576040517f08c379a00000000000000000000000000000000000000000000000000000000081526004016102b690610c7a565b60405180910390fd5b600115156000808373ffffffffffffffffffffffffffffffffffffffff1673ffffffffffffffffffffffffffffffffffffffff16815260200190815260200160002060000160009054906101000a900460ff16151514610354576040517f08c379a000000000000000000000000000000000000000000000000000000000815260040161034b90610ce6565b60405180910390fd5b6000808273ffffffffffffffffffffffffffffffffffffffff1673ffffffffffffffffffffffffffffffffffffffff16815260200190815260200160002060010160008154809291906103a690610d35565b919050555060018060003373ffffffffffffffffffffffffffffffffffffffff1673ffffffffffffffffffffffffffffffffffffffff16815260200190815260200160002060000160016101000a81548160ff02191690831515021790555050565b60001515600160003373ffffffffffffffffffffffffffffffffffffffff1673ffffffffffffffffffffffffffffffffffffffff16815260200190815260200160002060000160009054906101000a900460ff1615151461049e576040517f08c379a000000000000000000000000000000000000000000000000000000000815260040161049590610def565b60405180910390fd5b600015156000803373ffffffffffffffffffffffffffffffffffffffff1673ffffffffffffffffffffffffffffffffffffffff16815260200190815260200160002060000160009054906101000a900460ff16151514610533576040517f08c379a000000000000000000000000000000000000000000000000000000000815260040161052a90610e81565b60405180910390fd5b6000604051806040016040528060011515815260200160001515815250905080600160003373ffffffffffffffffffffffffffffffffffffffff1673ffffffffffffffffffffffffffffffffffffffff16815260200190815260200160002060008201518160000160006101000a81548160ff02191690831515021790555060208201518160000160016101000a81548160ff0219169083151502179055509050507fabd9def1d97fb29d9285b12268919849d83890c96b5cb51e69d7012c819e9afd60405160405180910390a150565b600354600254111561064b576040517f08c379a000000000000000000000000000000000000000000000000000000000815260040161064290610eed565b60405180910390fd5b600015156000803373ffffffffffffffffffffffffffffffffffffffff1673ffffffffffffffffffffffffffffffffffffffff16815260200190815260200160002060000160009054906101000a900460ff161515146106e0576040517f08c379a00000000000000000000000000000000000000000000000000000000081526004016106d790610e81565b60405180910390fd5b60001515600160003373ffffffffffffffffffffffffffffffffffffffff1673ffffffffffffffffffffffffffffffffffffffff16815260200190815260200160002060000160009054906101000a900460ff16151514610776576040517f08c379a000000000000000000000000000000000000000000000000000000000815260040161076d90610def565b60405180910390fd5b6000604051806040016040528060011515815260200160008152509050806000803373ffffffffffffffffffffffffffffffffffffffff1673ffffffffffffffffffffffffffffffffffffffff16815260200190815260200160002060008201518160000160006101000a81548160ff021916908315150217905550602082015181600101559050503360046002548154811061081657610815610f0d565b5b9060005260206000200160006101000a81548173ffffffffffffffffffffffffffffffffffffffff021916908373ffffffffffffffffffffffffffffffffffffffff1602179055506002600081548092919061087190610d35565b91905055507f1d2f21fd4e96b4cbaa58f37676a477582f861e2264c06071d355dcdbcfac8de860405160405180910390a150565b60025481565b6108b36109c3565b600115156000808473ffffffffffffffffffffffffffffffffffffffff1673ffffffffffffffffffffffffffffffffffffffff16815260200190815260200160002060000160009054906101000a900460ff16151514610948576040517f08c379a000000000000000000000000000000000000000000000000000000000815260040161093f90610ce6565b60405180910390fd5b6000808373ffffffffffffffffffffffffffffffffffffffff1673ffffffffffffffffffffffffffffffffffffffff1681526020019081526020016000206040518060400160405290816000820160009054906101000a900460ff161515151581526020016001820154815250509050919050565b60035481565b6040518060400160405280600015158152602001600081525090565b600081519050919050565b600082825260208201905092915050565b6000819050602082019050919050565b600073ffffffffffffffffffffffffffffffffffffffff82169050919050565b6000610a3682610a0b565b9050919050565b610a4681610a2b565b82525050565b6000610a588383610a3d565b60208301905092915050565b6000602082019050919050565b6000610a7c826109df565b610a8681856109ea565b9350610a91836109fb565b8060005b83811015610ac2578151610aa98882610a4c565b9750610ab483610a64565b925050600181019050610a95565b5085935050505092915050565b60006020820190508181036000830152610ae98184610a71565b905092915050565b600080fd5b610aff81610a2b565b8114610b0a57600080fd5b50565b600081359050610b1c81610af6565b92915050565b600060208284031215610b3857610b37610af1565b5b6000610b4684828501610b0d565b91505092915050565b6000819050919050565b610b6281610b4f565b82525050565b6000602082019050610b7d6000830184610b59565b92915050565b60008115159050919050565b610b9881610b83565b82525050565b610ba781610b4f565b82525050565b604082016000820151610bc36000850182610b8f565b506020820151610bd66020850182610b9e565b50505050565b6000604082019050610bf16000830184610bad565b92915050565b600082825260208201905092915050565b7f566f74657220646f6573206e6f74206578697374206f7220616c72656164792060008201527f766f746564000000000000000000000000000000000000000000000000000000602082015250565b6000610c64602583610bf7565b9150610c6f82610c08565b604082019050919050565b60006020820190508181036000830152610c9381610c57565b9050919050565b7f43616e64696461746520646f6573206e6f742065786973740000000000000000600082015250565b6000610cd0601883610bf7565b9150610cdb82610c9a565b602082019050919050565b60006020820190508181036000830152610cff81610cc3565b9050919050565b7f4e487b7100000000000000000000000000000000000000000000000000000000600052601160045260246000fd5b6000610d4082610b4f565b91507fffffffffffffffffffffffffffffffffffffffffffffffffffffffffffffffff8203610d7257610d71610d06565b5b600182019050919050565b7f557365722068617320616c72656164792072656769737465726564206173205660008201527f6f7465722e000000000000000000000000000000000000000000000000000000602082015250565b6000610dd9602583610bf7565b9150610de482610d7d565b604082019050919050565b60006020820190508181036000830152610e0881610dcc565b9050919050565b7f557365722068617320616c72656164792072656769737465726564206173204360008201527f616e6469646174652e0000000000000000000000000000000000000000000000602082015250565b6000610e6b602983610bf7565b9150610e7682610e0f565b604082019050919050565b60006020820190508181036000830152610e9a81610e5e565b9050919050565b7f4e6f206f66206d61782063616e646964617465732065786365656465642e0000600082015250565b6000610ed7601e83610bf7565b9150610ee282610ea1565b602082019050919050565b60006020820190508181036000830152610f0681610eca565b9050919050565b7f4e487b7100000000000000000000000000000000000000000000000000000000600052603260045260246000fdfea26469706673582212208cf12ed87afbb38b1888c366191ed307cce607be0746a4ba31e5e57c1c04793264736f6c63430008120033",
  "immutableReferences": {},
  "source": "// SPDX-License-Identifier: GPL-3.0\r\n\r\npragma solidity >=0.7.0 <0.9.0;\r\n\r\ncontract ElectoralContract {\r\n    struct candidate {\r\n        bool exists;\r\n        uint256 votes;\r\n    }\r\n\r\n    struct voter {\r\n        bool exists;\r\n        bool voted;\r\n    }\r\n    // implement the results functionality\r\n    mapping(address => candidate) candidates;\r\n    mapping(address => voter) voters;\r\n    uint256 public no_of_candidates = 0;\r\n    uint256 public max_no_of_candidates = 4;\r\n\r\n    address[] private candidatesAddress = new address[](max_no_of_candidates);\r\n\r\n    event candidateRegistrationSuccessful();\r\n    event voterRegistrationSuccessful();\r\n\r\n    function registerAsCandidate() public {\r\n        require(no_of_candidates <= max_no_of_candidates, \"No of max candidates exceeded.\");\r\n        require(\r\n            candidates[msg.sender].exists == false,\r\n            \"User has already registered as Candidate.\"\r\n        );\r\n        require(\r\n            voters[msg.sender].exists == false,\r\n            \"User has already registered as Voter.\"\r\n        );\r\n        candidate memory newCandidate = candidate(true, 0);\r\n        candidates[msg.sender] = newCandidate;\r\n        candidatesAddress[no_of_candidates] = msg.sender;\r\n        no_of_candidates++;\r\n        emit candidateRegistrationSuccessful();\r\n    }\r\n\r\n    function registerAsVoter() public {\r\n        require(\r\n            voters[msg.sender].exists == false,\r\n            \"User has already registered as Voter.\"\r\n        );\r\n        require(\r\n            candidates[msg.sender].exists == false,\r\n            \"User has already registered as Candidate.\"\r\n        );\r\n        voter memory newVoter = voter(true, false);\r\n        voters[msg.sender] = newVoter;\r\n        emit voterRegistrationSuccessful();\r\n    }\r\n\r\n    function getCandidatesData(address candidateAddress)\r\n        public\r\n        view\r\n        returns (candidate memory)\r\n    {\r\n        require(\r\n            candidates[candidateAddress].exists == true,\r\n            \"Candidate does not exist\"\r\n        );\r\n        return candidates[candidateAddress];\r\n    }\r\n\r\n    function getCandidates() public view returns (address[] memory) {\r\n        return candidatesAddress;\r\n    }\r\n\r\n    function voteCandidate(address candidateAddress) public {\r\n        require(\r\n            voters[msg.sender].exists == true &&\r\n                voters[msg.sender].voted == false,\r\n            \"Voter does not exist or already voted\"\r\n        );\r\n        require(\r\n            candidates[candidateAddress].exists == true,\r\n            \"Candidate does not exist\"\r\n        );\r\n        candidates[candidateAddress].votes++;\r\n        voters[msg.sender].voted = true;\r\n    }\r\n}\r\n",
  "sourcePath": "D:\\Tashfeen_Tipu\\BEDS\\MSc Project\\MSC-Project\\electoralfrontend\\contracts\\ElectoralContract.sol",
  "compiler": {
    "name": "solc",
    "version": "0.8.18+commit.87f61d96.Emscripten.clang"
  },
  "schemaVersion": "3.4.10",
  "updatedAt": "2023-02-21T23:24:17.907Z",
  "networkType": "ethereum",
  "devdoc": {
    "kind": "dev",
    "methods": {},
    "version": 1
  },
  "userdoc": {
    "kind": "user",
    "methods": {},
    "version": 1
  }
}