{
  "contractName": "ElectoralContract",
  "abi": [
    {
      "anonymous": false,
      "inputs": [],
      "name": "candidateRegistrationSuccessful",
      "type": "event"
    },
    {
      "anonymous": false,
      "inputs": [],
      "name": "voterRegistrationSuccessful",
      "type": "event"
    },
    {
      "inputs": [],
      "name": "max_no_of_candidates",
      "outputs": [
        {
          "internalType": "uint256",
          "name": "",
          "type": "uint256"
        }
      ],
      "stateMutability": "view",
      "type": "function"
    },
    {
      "inputs": [],
      "name": "no_of_candidates",
      "outputs": [
        {
          "internalType": "uint256",
          "name": "",
          "type": "uint256"
        }
      ],
      "stateMutability": "view",
      "type": "function"
    },
    {
      "inputs": [],
      "name": "registerAsCandidate",
      "outputs": [],
      "stateMutability": "payable",
      "type": "function"
    },
    {
      "inputs": [],
      "name": "registerAsVoter",
      "outputs": [],
      "stateMutability": "payable",
      "type": "function"
    },
    {
      "inputs": [
        {
          "internalType": "address",
          "name": "candidateAddress",
          "type": "address"
        }
      ],
      "name": "getCandidatesData",
      "outputs": [
        {
          "components": [
            {
              "internalType": "bool",
              "name": "exists",
              "type": "bool"
            },
            {
              "internalType": "uint256",
              "name": "votes",
              "type": "uint256"
            }
          ],
          "internalType": "struct ElectoralContract.candidate",
          "name": "",
          "type": "tuple"
        }
      ],
      "stateMutability": "view",
      "type": "function"
    },
    {
      "inputs": [],
      "name": "getCandidates",
      "outputs": [
        {
          "internalType": "address[]",
          "name": "",
          "type": "address[]"
        }
      ],
      "stateMutability": "view",
      "type": "function"
    },
    {
      "inputs": [
        {
          "internalType": "address",
          "name": "candidateAddress",
          "type": "address"
        }
      ],
      "name": "voteCandidate",
      "outputs": [],
      "stateMutability": "payable",
      "type": "function"
    }
  ],
  "bytecode": "0x60806040526000600255600460035560035467ffffffffffffffff81111561002a57610029610128565b5b6040519080825280602002602001820160405280156100585781602001602082028036833780820191505090505b506004908051906020019061006e929190610081565b5034801561007b57600080fd5b50610157565b8280548282559060005260206000209081019282156100fa579160200282015b828111156100f95782518260006101000a81548173ffffffffffffffffffffffffffffffffffffffff021916908373ffffffffffffffffffffffffffffffffffffffff160217905550916020019190600101906100a1565b5b509050610107919061010b565b5090565b5b8082111561012457600081600090555060010161010c565b5090565b7f4e487b7100000000000000000000000000000000000000000000000000000000600052604160045260246000fd5b610f0b806101666000396000f3fe6080604052600436106100705760003560e01c8063a5ea56271161004e578063a5ea5627146100c6578063aa1ea3af146100d0578063b3902232146100fb578063c9f0d1f71461013857610070565b806306a49fce1461007557806326bb886d146100a057806378668658146100bc575b600080fd5b34801561008157600080fd5b5061008a610163565b6040516100979190610a97565b60405180910390f35b6100ba60048036038101906100b59190610aea565b6101f1565b005b6100c461042f565b005b6100ce61062b565b005b3480156100dc57600080fd5b506100e561086d565b6040516100f29190610b30565b60405180910390f35b34801561010757600080fd5b50610122600480360381019061011d9190610aea565b610873565b60405161012f9190610ba4565b60405180910390f35b34801561014457600080fd5b5061014d610985565b60405161015a9190610b30565b60405180910390f35b606060048054806020026020016040519081016040528092919081815260200182805480156101e757602002820191906000526020600020905b8160009054906101000a900473ffffffffffffffffffffffffffffffffffffffff1673ffffffffffffffffffffffffffffffffffffffff168152602001906001019080831161019d575b5050505050905090565b60011515600160003373ffffffffffffffffffffffffffffffffffffffff1673ffffffffffffffffffffffffffffffffffffffff16815260200190815260200160002060000160009054906101000a900460ff1615151480156102a7575060001515600160003373ffffffffffffffffffffffffffffffffffffffff1673ffffffffffffffffffffffffffffffffffffffff16815260200190815260200160002060000160019054906101000a900460ff161515145b6102e6576040517f08c379a00000000000000000000000000000000000000000000000000000000081526004016102dd90610c42565b60405180910390fd5b600115156000808373ffffffffffffffffffffffffffffffffffffffff1673ffffffffffffffffffffffffffffffffffffffff16815260200190815260200160002060000160009054906101000a900460ff1615151461037b576040517f08c379a000000000000000000000000000000000000000000000000000000000815260040161037290610cae565b60405180910390fd5b6000808273ffffffffffffffffffffffffffffffffffffffff1673ffffffffffffffffffffffffffffffffffffffff16815260200190815260200160002060010160008154809291906103cd90610cfd565b919050555060018060003373ffffffffffffffffffffffffffffffffffffffff1673ffffffffffffffffffffffffffffffffffffffff16815260200190815260200160002060000160016101000a81548160ff02191690831515021790555050565b60001515600160003373ffffffffffffffffffffffffffffffffffffffff1673ffffffffffffffffffffffffffffffffffffffff16815260200190815260200160002060000160009054906101000a900460ff161515146104c5576040517f08c379a00000000000000000000000000000000000000000000000000000000081526004016104bc90610db7565b60405180910390fd5b600015156000803373ffffffffffffffffffffffffffffffffffffffff1673ffffffffffffffffffffffffffffffffffffffff16815260200190815260200160002060000160009054906101000a900460ff1615151461055a576040517f08c379a000000000000000000000000000000000000000000000000000000000815260040161055190610e49565b60405180910390fd5b6000604051806040016040528060011515815260200160001515815250905080600160003373ffffffffffffffffffffffffffffffffffffffff1673ffffffffffffffffffffffffffffffffffffffff16815260200190815260200160002060008201518160000160006101000a81548160ff02191690831515021790555060208201518160000160016101000a81548160ff0219169083151502179055509050507fabd9def1d97fb29d9285b12268919849d83890c96b5cb51e69d7012c819e9afd60405160405180910390a150565b6003546002541115610672576040517f08c379a000000000000000000000000000000000000000000000000000000000815260040161066990610eb5565b60405180910390fd5b600015156000803373ffffffffffffffffffffffffffffffffffffffff1673ffffffffffffffffffffffffffffffffffffffff16815260200190815260200160002060000160009054906101000a900460ff16151514610707576040517f08c379a00000000000000000000000000000000000000000000000000000000081526004016106fe90610e49565b60405180910390fd5b60001515600160003373ffffffffffffffffffffffffffffffffffffffff1673ffffffffffffffffffffffffffffffffffffffff16815260200190815260200160002060000160009054906101000a900460ff1615151461079d576040517f08c379a000000000000000000000000000000000000000000000000000000000815260040161079490610db7565b60405180910390fd5b6000604051806040016040528060011515815260200160008152509050806000803373ffffffffffffffffffffffffffffffffffffffff1673ffffffffffffffffffffffffffffffffffffffff16815260200190815260200160002060008201518160000160006101000a81548160ff021916908315150217905550602082015181600101559050506002600081548092919061083990610cfd565b91905055507f1d2f21fd4e96b4cbaa58f37676a477582f861e2264c06071d355dcdbcfac8de860405160405180910390a150565b60025481565b61087b61098b565b600115156000808473ffffffffffffffffffffffffffffffffffffffff1673ffffffffffffffffffffffffffffffffffffffff16815260200190815260200160002060000160009054906101000a900460ff16151514610910576040517f08c379a000000000000000000000000000000000000000000000000000000000815260040161090790610cae565b60405180910390fd5b6000808373ffffffffffffffffffffffffffffffffffffffff1673ffffffffffffffffffffffffffffffffffffffff1681526020019081526020016000206040518060400160405290816000820160009054906101000a900460ff161515151581526020016001820154815250509050919050565b60035481565b6040518060400160405280600015158152602001600081525090565b600081519050919050565b600082825260208201905092915050565b6000819050602082019050919050565b600073ffffffffffffffffffffffffffffffffffffffff82169050919050565b60006109fe826109d3565b9050919050565b610a0e816109f3565b82525050565b6000610a208383610a05565b60208301905092915050565b6000602082019050919050565b6000610a44826109a7565b610a4e81856109b2565b9350610a59836109c3565b8060005b83811015610a8a578151610a718882610a14565b9750610a7c83610a2c565b925050600181019050610a5d565b5085935050505092915050565b60006020820190508181036000830152610ab18184610a39565b905092915050565b600080fd5b610ac7816109f3565b8114610ad257600080fd5b50565b600081359050610ae481610abe565b92915050565b600060208284031215610b0057610aff610ab9565b5b6000610b0e84828501610ad5565b91505092915050565b6000819050919050565b610b2a81610b17565b82525050565b6000602082019050610b456000830184610b21565b92915050565b60008115159050919050565b610b6081610b4b565b82525050565b610b6f81610b17565b82525050565b604082016000820151610b8b6000850182610b57565b506020820151610b9e6020850182610b66565b50505050565b6000604082019050610bb96000830184610b75565b92915050565b600082825260208201905092915050565b7f566f74657220646f6573206e6f74206578697374206f7220616c72656164792060008201527f766f746564000000000000000000000000000000000000000000000000000000602082015250565b6000610c2c602583610bbf565b9150610c3782610bd0565b604082019050919050565b60006020820190508181036000830152610c5b81610c1f565b9050919050565b7f43616e64696461746520646f6573206e6f742065786973740000000000000000600082015250565b6000610c98601883610bbf565b9150610ca382610c62565b602082019050919050565b60006020820190508181036000830152610cc781610c8b565b9050919050565b7f4e487b7100000000000000000000000000000000000000000000000000000000600052601160045260246000fd5b6000610d0882610b17565b91507fffffffffffffffffffffffffffffffffffffffffffffffffffffffffffffffff8203610d3a57610d39610cce565b5b600182019050919050565b7f557365722068617320616c72656164792072656769737465726564206173205660008201527f6f7465722e000000000000000000000000000000000000000000000000000000602082015250565b6000610da1602583610bbf565b9150610dac82610d45565b604082019050919050565b60006020820190508181036000830152610dd081610d94565b9050919050565b7f557365722068617320616c72656164792072656769737465726564206173204360008201527f616e6469646174652e0000000000000000000000000000000000000000000000602082015250565b6000610e33602983610bbf565b9150610e3e82610dd7565b604082019050919050565b60006020820190508181036000830152610e6281610e26565b9050919050565b7f4e6f206f66206d61782063616e646964617465732065786365656465642e0000600082015250565b6000610e9f601e83610bbf565b9150610eaa82610e69565b602082019050919050565b60006020820190508181036000830152610ece81610e92565b905091905056fea2646970667358221220d43d5ed5071f30c425e9ae43c02665134595243bfb36f80ced99b8e5912d25a164736f6c63430008120033",
  "immutableReferences": {},
  "source": "// SPDX-License-Identifier: GPL-3.0\r\n\r\npragma solidity >=0.7.0 <0.9.0;\r\n\r\ncontract ElectoralContract {\r\n    struct candidate {\r\n        bool exists;\r\n        uint256 votes;\r\n    }\r\n\r\n    struct voter {\r\n        bool exists;\r\n        bool voted;\r\n    }\r\n    // implement the results functionality\r\n    mapping(address => candidate) candidates;\r\n    mapping(address => voter) voters;\r\n    uint256 public no_of_candidates = 0;\r\n    uint256 public max_no_of_candidates = 4;\r\n\r\n    address[] private candidatesAddress = new address[](max_no_of_candidates);\r\n\r\n    event candidateRegistrationSuccessful();\r\n    event voterRegistrationSuccessful();\r\n\r\n    function registerAsCandidate() public payable {\r\n        require(no_of_candidates <= max_no_of_candidates, \"No of max candidates exceeded.\");\r\n        require(\r\n            candidates[msg.sender].exists == false,\r\n            \"User has already registered as Candidate.\"\r\n        );\r\n        require(\r\n            voters[msg.sender].exists == false,\r\n            \"User has already registered as Voter.\"\r\n        );\r\n        candidate memory newCandidate = candidate(true, 0);\r\n        candidates[msg.sender] = newCandidate;\r\n        no_of_candidates++;\r\n        emit candidateRegistrationSuccessful();\r\n    }\r\n\r\n    function registerAsVoter() public payable {\r\n        require(\r\n            voters[msg.sender].exists == false,\r\n            \"User has already registered as Voter.\"\r\n        );\r\n        require(\r\n            candidates[msg.sender].exists == false,\r\n            \"User has already registered as Candidate.\"\r\n        );\r\n        voter memory newVoter = voter(true, false);\r\n        voters[msg.sender] = newVoter;\r\n        emit voterRegistrationSuccessful();\r\n    }\r\n\r\n    function getCandidatesData(address candidateAddress)\r\n        public\r\n        view\r\n        returns (candidate memory)\r\n    {\r\n        require(\r\n            candidates[candidateAddress].exists == true,\r\n            \"Candidate does not exist\"\r\n        );\r\n        return candidates[candidateAddress];\r\n    }\r\n\r\n    function getCandidates() public view returns (address[] memory) {\r\n        return candidatesAddress;\r\n    }\r\n\r\n    function voteCandidate(address candidateAddress) public payable {\r\n        require(\r\n            voters[msg.sender].exists == true &&\r\n                voters[msg.sender].voted == false,\r\n            \"Voter does not exist or already voted\"\r\n        );\r\n        require(\r\n            candidates[candidateAddress].exists == true,\r\n            \"Candidate does not exist\"\r\n        );\r\n        candidates[candidateAddress].votes++;\r\n        voters[msg.sender].voted = true;\r\n    }\r\n}\r\n",
  "sourcePath": "D:\\Tashfeen_Tipu\\BEDS\\MSc Project\\MSC-Project\\electoralfrontend\\contracts\\ElectoralContract.sol",
  "compiler": {
    "name": "solc",
    "version": "0.8.18+commit.87f61d96.Emscripten.clang"
  },
  "schemaVersion": "3.4.10",
  "updatedAt": "2023-02-15T21:02:36.271Z",
  "devdoc": {
    "kind": "dev",
    "methods": {},
    "version": 1
  },
  "userdoc": {
    "kind": "user",
    "methods": {},
    "version": 1
  }
}